{
  "_format": "hh-sol-artifact-1",
  "contractName": "LiquidityManager",
  "sourceName": "contracts/Liqudity.sol",
  "abi": [
    {
      "anonymous": false,
      "inputs": [
        {
          "indexed": false,
          "internalType": "uint256",
          "name": "amount0",
          "type": "uint256"
        },
        {
          "indexed": false,
          "internalType": "uint256",
          "name": "amount1",
          "type": "uint256"
        }
      ],
      "name": "FeesCollected",
      "type": "event"
    },
    {
      "anonymous": false,
      "inputs": [
        {
          "indexed": false,
          "internalType": "uint256",
          "name": "amount0",
          "type": "uint256"
        },
        {
          "indexed": false,
          "internalType": "uint256",
          "name": "amount1",
          "type": "uint256"
        }
      ],
      "name": "LiquidityDecreasedByHalf",
      "type": "event"
    },
    {
      "anonymous": false,
      "inputs": [
        {
          "indexed": false,
          "internalType": "uint256",
          "name": "liquidity",
          "type": "uint256"
        },
        {
          "indexed": false,
          "internalType": "uint256",
          "name": "amount0",
          "type": "uint256"
        },
        {
          "indexed": false,
          "internalType": "uint256",
          "name": "amount1",
          "type": "uint256"
        }
      ],
      "name": "LiquidityIncreased",
      "type": "event"
    },
    {
      "anonymous": false,
      "inputs": [
        {
          "indexed": false,
          "internalType": "uint256",
          "name": "tokenId",
          "type": "uint256"
        },
        {
          "indexed": false,
          "internalType": "uint128",
          "name": "liquidity",
          "type": "uint128"
        },
        {
          "indexed": false,
          "internalType": "uint256",
          "name": "amount0",
          "type": "uint256"
        },
        {
          "indexed": false,
          "internalType": "uint256",
          "name": "amount1",
          "type": "uint256"
        }
      ],
      "name": "PositionMinted",
      "type": "event"
    },
    {
      "inputs": [],
      "name": "DAI",
      "outputs": [
        {
          "internalType": "address",
          "name": "",
          "type": "address"
        }
      ],
      "stateMutability": "view",
      "type": "function"
    },
    {
      "inputs": [],
      "name": "NonfungiblePositionManager",
      "outputs": [
        {
          "internalType": "contract INonfungiblePositionManager",
          "name": "",
          "type": "address"
        }
      ],
      "stateMutability": "view",
      "type": "function"
    },
    {
      "inputs": [],
      "name": "USDC",
      "outputs": [
        {
          "internalType": "address",
          "name": "",
          "type": "address"
        }
      ],
      "stateMutability": "view",
      "type": "function"
    },
    {
      "inputs": [
        {
          "internalType": "uint256",
          "name": "tokenId",
          "type": "uint256"
        }
      ],
      "name": "collectAllFees",
      "outputs": [
        {
          "internalType": "uint256",
          "name": "amount0",
          "type": "uint256"
        },
        {
          "internalType": "uint256",
          "name": "amount1",
          "type": "uint256"
        }
      ],
      "stateMutability": "nonpayable",
      "type": "function"
    },
    {
      "inputs": [
        {
          "internalType": "uint256",
          "name": "tokenId",
          "type": "uint256"
        }
      ],
      "name": "decreaseLiquidityInHalf",
      "outputs": [
        {
          "internalType": "uint256",
          "name": "amount0",
          "type": "uint256"
        },
        {
          "internalType": "uint256",
          "name": "amount1",
          "type": "uint256"
        }
      ],
      "stateMutability": "nonpayable",
      "type": "function"
    },
    {
      "inputs": [
        {
          "internalType": "uint256",
          "name": "",
          "type": "uint256"
        }
      ],
      "name": "deposits",
      "outputs": [
        {
          "internalType": "address",
          "name": "owner",
          "type": "address"
        },
        {
          "internalType": "uint128",
          "name": "liquidity",
          "type": "uint128"
        },
        {
          "internalType": "address",
          "name": "token0",
          "type": "address"
        },
        {
          "internalType": "address",
          "name": "token1",
          "type": "address"
        }
      ],
      "stateMutability": "view",
      "type": "function"
    },
    {
      "inputs": [
        {
          "internalType": "uint256",
          "name": "tokenId",
          "type": "uint256"
        },
        {
          "internalType": "uint256",
          "name": "amountAdd0",
          "type": "uint256"
        },
        {
          "internalType": "uint256",
          "name": "amountAdd1",
          "type": "uint256"
        }
      ],
      "name": "increaseLiquidityCurrentRange",
      "outputs": [
        {
          "internalType": "uint128",
          "name": "liquidity",
          "type": "uint128"
        },
        {
          "internalType": "uint256",
          "name": "amount0",
          "type": "uint256"
        },
        {
          "internalType": "uint256",
          "name": "amount1",
          "type": "uint256"
        }
      ],
      "stateMutability": "nonpayable",
      "type": "function"
    },
    {
      "inputs": [
        {
          "internalType": "address",
          "name": "_tokenOne",
          "type": "address"
        },
        {
          "internalType": "address",
          "name": "_tokenTwo",
          "type": "address"
        },
        {
          "internalType": "uint256",
          "name": "amount0ToMint",
          "type": "uint256"
        },
        {
          "internalType": "uint256",
          "name": "amount1ToMint",
          "type": "uint256"
        },
        {
          "internalType": "uint24",
          "name": "_poolFee",
          "type": "uint24"
        }
      ],
      "name": "mintNewPosition",
      "outputs": [
        {
          "internalType": "uint256",
          "name": "tokenId",
          "type": "uint256"
        },
        {
          "internalType": "uint128",
          "name": "liquidity",
          "type": "uint128"
        },
        {
          "internalType": "uint256",
          "name": "amount0",
          "type": "uint256"
        },
        {
          "internalType": "uint256",
          "name": "amount1",
          "type": "uint256"
        }
      ],
      "stateMutability": "nonpayable",
      "type": "function"
    },
    {
      "inputs": [
        {
          "internalType": "address",
          "name": "operator",
          "type": "address"
        },
        {
          "internalType": "address",
          "name": "from",
          "type": "address"
        },
        {
          "internalType": "uint256",
          "name": "tokenId",
          "type": "uint256"
        },
        {
          "internalType": "bytes",
          "name": "data",
          "type": "bytes"
        }
      ],
      "name": "onERC721Received",
      "outputs": [
        {
          "internalType": "bytes4",
          "name": "",
          "type": "bytes4"
        }
      ],
      "stateMutability": "nonpayable",
      "type": "function"
    },
    {
      "inputs": [],
      "name": "poolFee",
      "outputs": [
        {
          "internalType": "uint24",
          "name": "",
          "type": "uint24"
        }
      ],
      "stateMutability": "view",
      "type": "function"
    }
  ],
  "bytecode": "0x608060405234801561001057600080fd5b50611a18806100206000396000f3fe608060405234801561001057600080fd5b50600436106100be5760003560e01c806389a3027111610076578063b02c43d01161005b578063b02c43d01461018f578063e0bab4c4146101b2578063eb582d13146101ba576100be565b806389a30271146101575780638a57fbc01461016c576100be565b806346ce96dd116100a757806346ce96dd14610101578063617d6d6e146101225780638187b4c514610144576100be565b8063089fe6aa146100c3578063150b7a02146100e1575b600080fd5b6100cb6101c2565b6040516100d89190611971565b60405180910390f35b6100f46100ef36600461143f565b6101c7565b6040516100d89190611774565b61011461010f36600461156b565b6101fe565b6040516100d89291906119ae565b6101356101303660046115e1565b6103a0565b6040516100d893929190611950565b61011461015236600461156b565b610583565b61015f610700565b6040516100d89190611708565b61017f61017a3660046114d9565b610718565b6040516100d8949392919061198a565b6101a261019d36600461156b565b610b25565b6040516100d89493929190611740565b61015f610b65565b61015f610b7d565b606481565b60006101d38685610b95565b507f150b7a020000000000000000000000000000000000000000000000000000000095945050505050565b6040517f42842e0e000000000000000000000000000000000000000000000000000000008152600090819073c36442b4a4522e871399cd717abdd847ab11fe88906342842e0e906102579033903090889060040161171c565b600060405180830381600087803b15801561027157600080fd5b505af1158015610285573d6000803e3d6000fd5b5050604080516080810182528681523060208201526001600160801b03818301819052606082015290517ffc6f786500000000000000000000000000000000000000000000000000000000815290925073c36442b4a4522e871399cd717abdd847ab11fe88915063fc6f7865906103009084906004016117d8565b6040805180830381600087803b15801561031957600080fd5b505af115801561032d573d6000803e3d6000fd5b505050506040513d601f19601f8201168201806040525081019061035191906115be565b9093509150610361848484610d61565b7f49d512bf9cb224241c05691e73eb9fab078cf350c7dbcbcf66788f1fc0cc8b0b83836040516103929291906119ae565b60405180910390a150915091565b600083815260208190526040812060020154819081906103cb906001600160a01b0316333088610daa565b6000868152602081905260409020600301546103f2906001600160a01b0316333087610daa565b60008681526020819052604090206002015461042c906001600160a01b031673c36442b4a4522e871399cd717abdd847ab11fe8887610f2d565b600086815260208190526040902060030154610466906001600160a01b031673c36442b4a4522e871399cd717abdd847ab11fe8886610f2d565b6040805160c0810182528781526020810187905280820186905260006060820181905260808201524260a082015290517f219f5d1700000000000000000000000000000000000000000000000000000000815273c36442b4a4522e871399cd717abdd847ab11fe889063219f5d17906104e390849060040161185e565b606060405180830381600087803b1580156104fd57600080fd5b505af1158015610511573d6000803e3d6000fd5b505050506040513d601f19601f820116820180604052508101906105359190611537565b60405192965090945092507f3e7eb8fbb7b6a8eb3e381b450c3f3d92463dfc879765790e9853f3024269edd99061057190869086908690611950565b60405180910390a15093509350939050565b60008181526020819052604081205481906001600160a01b031633146105c45760405162461bcd60e51b81526004016105bb906117a1565b60405180910390fd5b6000838152602081905260408120600101546001600160801b0316906002826040805160a081018252888152929091046001600160801b03811660208401526000838301819052606084015242608084015290517f0c49ccbe00000000000000000000000000000000000000000000000000000000815290925073c36442b4a4522e871399cd717abdd847ab11fe8890630c49ccbe9061066890849060040161181b565b6040805180830381600087803b15801561068157600080fd5b505af1158015610695573d6000803e3d6000fd5b505050506040513d601f19601f820116820180604052508101906106b991906115be565b60405191965094507f0c069ee9bab1b86a12399e2a38da723a5e31ae8e045a1847bdae5bc13afb832a906106f090879087906119ae565b60405180910390a1505050915091565b73a0b86991c6218b36c1d19d4a2e9eb0ce3606eb4881565b60008060008061075c6040518060400160405280600681526020017f50617373203100000000000000000000000000000000000000000000000000008152506110af565b61077b8973c36442b4a4522e871399cd717abdd847ab11fe8889610f2d565b6107b96040518060400160405280600681526020017f50617373203200000000000000000000000000000000000000000000000000008152506110af565b6107d88873c36442b4a4522e871399cd717abdd847ab11fe8888610f2d565b6108166040518060400160405280600681526020017f50617373203300000000000000000000000000000000000000000000000000008152506110af565b60408051610160810182526001600160a01b03808c1682528a1660208083019190915262ffffff881682840152620d89e7196060830152620d89e8608083015260a082018a905260c08201899052600060e0830181905261010083015230610120830152426101408301528251808401909352600683527f506173732034000000000000000000000000000000000000000000000000000090830152906108bc906110af565b6040517f8831645600000000000000000000000000000000000000000000000000000000815273c36442b4a4522e871399cd717abdd847ab11fe889063883164569061090c9084906004016118a2565b608060405180830381600087803b15801561092657600080fd5b505af115801561093a573d6000803e3d6000fd5b505050506040513d601f19601f8201168201806040525081019061095e9190611583565b60408051808201909152600681527f50617373203500000000000000000000000000000000000000000000000000006020820152939850919650945092506109a5906110af565b6109af3386610b95565b6109ed6040518060400160405280600681526020017f50617373203600000000000000000000000000000000000000000000000000008152506110af565b87831015610a2557610a158a73c36442b4a4522e871399cd717abdd847ab11fe886000610f2d565b828803610a238b3383611171565b505b86821015610a5d57610a4d8973c36442b4a4522e871399cd717abdd847ab11fe886000610f2d565b818703610a5b8a3383611171565b505b610a9b6040518060400160405280600681526020017f50617373203700000000000000000000000000000000000000000000000000008152506110af565b7f7180ba4ffa4be9136434b7fa9b09c2c9e382d100e6850652637d0406f33110ff85858585604051610ad0949392919061198a565b60405180910390a1610b186040518060400160405280600781526020017f506173732038200000000000000000000000000000000000000000000000000081525084846112ec565b5095509550955095915050565b60006020819052908152604090208054600182015460028301546003909301546001600160a01b03928316936001600160801b0390921692918216911684565b736b175474e89094c44da98b954eedeac495271d0f81565b73c36442b4a4522e871399cd717abdd847ab11fe8881565b6040517f99fbab880000000000000000000000000000000000000000000000000000000081526000908190819073c36442b4a4522e871399cd717abdd847ab11fe88906399fbab8890610bec908790600401611981565b6101806040518083038186803b158015610c0557600080fd5b505afa158015610c19573d6000803e3d6000fd5b505050506040513d601f19601f82011682018060405250810190610c3d919061160c565b5050505097505050509450945050506040518060800160405280866001600160a01b03168152602001826001600160801b03168152602001846001600160a01b03168152602001836001600160a01b031681525060008086815260200190815260200160002060008201518160000160006101000a8154816001600160a01b0302191690836001600160a01b0316021790555060208201518160010160006101000a8154816001600160801b0302191690836001600160801b0316021790555060408201518160020160006101000a8154816001600160a01b0302191690836001600160a01b0316021790555060608201518160030160006101000a8154816001600160a01b0302191690836001600160a01b031602179055509050505050505050565b6000838152602081905260409020805460028201546003909201546001600160a01b039182169282169116610d97828487611171565b610da2818486611171565b505050505050565b604080516001600160a01b0385811660248301528481166044830152606480830185905283518084039091018152608490920183526020820180516001600160e01b03167f23b872dd00000000000000000000000000000000000000000000000000000000178152925182516000948594938a169392918291908083835b60208310610e475780518252601f199092019160209182019101610e28565b6001836020036101000a0380198251168184511680821785525050505050509050019150506000604051808303816000865af19150503d8060008114610ea9576040519150601f19603f3d011682016040523d82523d6000602084013e610eae565b606091505b5091509150818015610edc575080511580610edc5750808060200190516020811015610ed957600080fd5b50515b610da2576040805162461bcd60e51b815260206004820152600360248201527f5354460000000000000000000000000000000000000000000000000000000000604482015290519081900360640190fd5b604080516001600160a01b038481166024830152604480830185905283518084039091018152606490920183526020820180516001600160e01b03167f095ea7b3000000000000000000000000000000000000000000000000000000001781529251825160009485949389169392918291908083835b60208310610fc25780518252601f199092019160209182019101610fa3565b6001836020036101000a0380198251168184511680821785525050505050509050019150506000604051808303816000865af19150503d8060008114611024576040519150601f19603f3d011682016040523d82523d6000602084013e611029565b606091505b5091509150818015611057575080511580611057575080806020019051602081101561105457600080fd5b50515b6110a8576040805162461bcd60e51b815260206004820152600260248201527f5341000000000000000000000000000000000000000000000000000000000000604482015290519081900360640190fd5b5050505050565b61116e816040516024018080602001828103825283818151815260200191508051906020019080838360005b838110156110f35781810151838201526020016110db565b50505050905090810190601f1680156111205780820380516001836020036101000a031916815260200191505b5060408051601f198184030181529190526020810180516001600160e01b03167f41304fac0000000000000000000000000000000000000000000000000000000017905292506113c0915050565b50565b604080516001600160a01b038481166024830152604480830185905283518084039091018152606490920183526020820180516001600160e01b03167fa9059cbb000000000000000000000000000000000000000000000000000000001781529251825160009485949389169392918291908083835b602083106112065780518252601f1990920191602091820191016111e7565b6001836020036101000a0380198251168184511680821785525050505050509050019150506000604051808303816000865af19150503d8060008114611268576040519150601f19603f3d011682016040523d82523d6000602084013e61126d565b606091505b509150915081801561129b57508051158061129b575080806020019051602081101561129857600080fd5b50515b6110a8576040805162461bcd60e51b815260206004820152600260248201527f5354000000000000000000000000000000000000000000000000000000000000604482015290519081900360640190fd5b6113bb8383836040516024018080602001848152602001838152602001828103825285818151815260200191508051906020019080838360005b8381101561133e578181015183820152602001611326565b50505050905090810190601f16801561136b5780820380516001836020036101000a031916815260200191505b5060408051601f198184030181529190526020810180516001600160e01b03167fca47c4eb0000000000000000000000000000000000000000000000000000000017905294506113c09350505050565b505050565b61116e816113cf6113d76113f8565b63ffffffff16565b60006a636f6e736f6c652e6c6f679050600080835160208501845afa505050565b90565b8051611406816119bc565b919050565b8051600281900b811461140657600080fd5b80516001600160801b038116811461140657600080fd5b8051611406816119d1565b600080600080600060808688031215611456578081fd5b8535611461816119bc565b94506020860135611471816119bc565b935060408601359250606086013567ffffffffffffffff80821115611494578283fd5b818801915088601f8301126114a7578283fd5b8135818111156114b5578384fd5b8960208285010111156114c6578384fd5b9699959850939650602001949392505050565b600080600080600060a086880312156114f0578081fd5b85356114fb816119bc565b9450602086013561150b816119bc565b935060408601359250606086013591506080860135611529816119d1565b809150509295509295909350565b60008060006060848603121561154b578283fd5b6115548461141d565b925060208401519150604084015190509250925092565b60006020828403121561157c578081fd5b5035919050565b60008060008060808587031215611598578384fd5b845193506115a86020860161141d565b6040860151606090960151949790965092505050565b600080604083850312156115d0578182fd5b505080516020909101519092909150565b6000806000606084860312156115f5578283fd5b505081359360208301359350604090920135919050565b6000806000806000806000806000806000806101808d8f03121561162e578687fd5b8c516bffffffffffffffffffffffff81168114611649578788fd5b9b5061165760208e016113fb565b9a5061166560408e016113fb565b995061167360608e016113fb565b985061168160808e01611434565b975061168f60a08e0161140b565b965061169d60c08e0161140b565b95506116ab60e08e0161141d565b94506101008d015193506101208d015192506116ca6101408e0161141d565b91506116d96101608e0161141d565b90509295989b509295989b509295989b565b6001600160a01b03169052565b60020b9052565b62ffffff169052565b6001600160a01b0391909116815260200190565b6001600160a01b039384168152919092166020820152604081019190915260600190565b6001600160a01b0394851681526001600160801b039390931660208401529083166040830152909116606082015260800190565b7fffffffff0000000000000000000000000000000000000000000000000000000091909116815260200190565b6020808252600d908201527f4e6f7420746865206f776e657200000000000000000000000000000000000000604082015260600190565b815181526020808301516001600160a01b0316908201526040808301516001600160801b0390811691830191909152606092830151169181019190915260800190565b600060a082019050825182526001600160801b03602084015116602083015260408301516040830152606083015160608301526080830151608083015292915050565b600060c082019050825182526020830151602083015260408301516040830152606083015160608301526080830151608083015260a083015160a083015292915050565b6000610160820190506118b68284516116eb565b60208301516118c860208401826116eb565b5060408301516118db60408401826116ff565b5060608301516118ee60608401826116f8565b50608083015161190160808401826116f8565b5060a083015160a083015260c083015160c083015260e083015160e08301526101008084015181840152506101208084015161193f828501826116eb565b505061014092830151919092015290565b6001600160801b039390931683526020830191909152604082015260600190565b62ffffff91909116815260200190565b90815260200190565b9384526001600160801b039290921660208401526040830152606082015260800190565b918252602082015260400190565b6001600160a01b038116811461116e57600080fd5b62ffffff8116811461116e57600080fdfea2646970667358221220693f792c739ec4719b6c303e170dbf68b698037c1e4d91f9fed14d1509bf688864736f6c63430007060033",
  "linkReferences": {},
  "deployedLinkReferences": {}
}